:020000040800F2
:10000000B8070020290200083F1D0008451A000813
:100010003D1D0008490500081D21000800000000E2
:10002000000000000000000000000000431D000868
:10003000B906000800000000411D0008051E000868
:10004000430200084302000843020008430200087C
:10005000430200084302000843020008430200086C
:10006000430200084302000843020008430200085C
:10007000430200084302000843020008430200084C
:10008000430200084302000843020008430200083C
:10009000430200084302000843020008430200082C
:1000A000430200084302000843020008430200081C
:1000B000430200084302000843020008430200080C
:1000C00043020008430200084302000843020008FC
:1000D00043020008430200084302000843020008EC
:1000E00043020008430200084302000843020008DC
:1000F00043020008430200084302000843020008CC
:1001000043020008430200084302000843020008BB
:1001100043020008430200084302000843020008AB
:10012000430200084302000843020008430200089B
:10013000430200084302000843020008430200088B
:10014000430200084302000843020008430200087B
:10015000430200084302000843020008430200086B
:10016000430200084302000843020008430200085B
:100170004302000843020008430200080000000098
:10018000430200084302000800F002F800F03CF8C7
:100190000AA090E8000C82448344AAF10107DA45E2
:1001A00001D100F031F8AFF2090EBAE80F0013F0F8
:1001B000010F18BFFB1A43F0010318476C2A000017
:1001C0008C2A0000103A24BF78C878C1FAD85207A8
:1001D00024BF30C830C144BF04680C6070470000C1
:1001E0000023002400250026103A28BF78C1FBD840
:1001F000520728BF30C148BF0B6070471FB502F0DF
:10020000D3FC1FBD10B510BD00F0CFF81146FFF7AD
:10021000F5FF01F095FF00F0EDF803B4FFF7F2FFF2
:1002200003BC00F0F5F80000094880470948004782
:10023000FEE7FEE7FEE7FEE7FEE7FEE7FEE7FEE796
:10024000FEE7FEE704480549054A064B70470000F3
:100250009D1E000889010008B8010020B807002091
:10026000B8030020B803002053EA020C00F06980B4
:100270002DE9F04B4FF00006002B1FBFB3FA83F5BA
:1002800003FA05F424FA05F65E4012BF1643B2FAEB
:1002900082F502FA05F4C5F120051EBF22FA05FC1D
:1002A00044EA0C04203556EA044C4FEA144418BFC3
:1002B000641C4FF000084FF00009904271EB030CF2
:1002C00039D3002919BFB1FA81F701FA07F6B0FA5C
:1002D00080F700FA07F6C7F120071EBF20FA07FCD7
:1002E00046EA0C062037B6FBF4FCA7EB0507103FE7
:1002F00007F01F0BCBF120060CFA0BFB2CFA06F6CD
:1003000044BFB3460026202FA4BF5E464FF0000B2B
:100310005BEA060C08BF4FF0010B19EB0B09ABFBB6
:10032000027C48EB0608C01B06FB02CC0BFB03CC8F
:1003300071EB0C01C1E70B46024641464846BDE859
:10034000F08B13B54FF000004FF00001AFF30080C9
:10035000BDE81C4070474FF0000200B513469446BC
:100360009646203922BFA0E80C50A0E80C50B1F10D
:100370002001BFF4F7AF090728BFA0E80C5048BF21
:100380000CC05DF804EB890028BF40F8042B08BFBF
:10039000704748BF20F8022B11F0804F18BF00F8BB
:1003A000012B7047704770477047754600F02CF876
:1003B000AE4605006946534620F00700854618B052
:1003C00020B5FFF73FFFBDE820404FF000064FF09B
:1003D00000074FF000084FF0000B21F00701AC467A
:1003E000ACE8C009ACE8C009ACE8C009ACE8C00999
:1003F0008D46704710B50446AFF300802046BDE837
:100400001040FFF70ABF0000004870475401002069
:1004100001491820ABBEFEE726000200704700002D
:10042000464910B54A6822F440324A604A68436837
:100430001A434A6001684A6822F480724A6001687F
:100440004A68036942EA03224A6001684A6822F066
:1004500040724A6001684A6883681A434A600168CA
:100460008A6822F400628A6001688A68C3681A4355
:100470008A60816A6FF07062D14201688A6822F0F6
:1004800070628A6001688A680CD0836A1A438A6045
:1004900001688A6822F040528A6001688A68C36AEB
:1004A0001A4301E022F040528A6001688A6822F013
:1004B00002028A6001688A68037E42EA43028A6017
:1004C00090F82010002901684A680FD042F40062B9
:1004D0004A6001684A6822F460424A6001684A68DA
:1004E000174C436A04EB43331A4301E022F40062E1
:1004F0004A600168CA6A22F47002CA620168CA6A64
:10050000838B104C04EB03531A43CA6201688A6858
:1005100022F400728A6001688A6890F8303042EAFA
:1005200043228A6001688A6822F480628A600168D6
:100530008A68406942EA8020886010BD002301403B
:1005400000E0FFFF0000F0FFFEE7000010B58AB0FA
:1005500000240594069446F22000CDE90004079497
:100560004FF6E070CDE902040120089004940E20BB
:1005700009906946074800F00DFA064800F0DEFBD6
:1005800005480470C4704470047101F0DBFB0AB0CC
:1005900010BD00009C000020100000202DE9F0415B
:1005A0008AB040F201340DE007AB6A4600212C48C6
:1005B00000F087FA30B90098A04203D107A9684635
:1005C00001F0F0F90021264800F06AFA0028EBD18A
:1005D000244C2078002840D000F0DAFCA168401AB2
:1005E000B0F5FA7F39D320780027012802D00228FD
:1005F00010D029E01B489FED1C0B0C3003C801F004
:10060000D3FD2079401CC0B2207103281CD90320DF
:10061000207119E0134E0025DFF8548014360CE0E9
:1006200008EBC50090ED000B06EBC500416856F8DD
:10063000350001F0B9FD6D1CEDB260798542EFD354
:100640002079032800D3277102202770E07001462B
:1006500000236278A07800F00DF80AB0BDE8F081C0
:100660009C00002010000020000000000080564088
:10067000C82B000830B589B00024069440F2053537
:10068000CDE90054079408250294CDE903458DF87F
:1006900018008DF819108DF81A208DF81B308DF880
:1006A000144008AB06AA6946024800F00BF909B0ED
:1006B00030BD00009C000020704772B6FEE70000CD
:1006C00078B50024009490F83C20012A19D001222A
:1006D00080F83C200A6807230568092A13D9EE68C8
:1006E0000A3A02EB420293409E43EE600B788A681E
:1006F0000A3B03EB43039A400368DD682A43DA6050
:1007000010E0022078BD2E6902EB420293409E4326
:100710002E610B788A6803EB43039A4003681D69D6
:100720002A431A614A681F23072A13D205686E6B91
:10073000521E02EB820293409E436E630B790A883D
:100740005B1E92B203EB83039A4003685D6B2A43FE
:100750005A6327E005680D2A12D22E6BD21F02EBD6
:10076000820293409E432E630B790A88DB1F92B26C
:1007700003EB83039A4003681D6B2A431A6311E05D
:10078000EE6A0D3A02EB820293409E43EE620B79D1
:100790000A880D3B92B203EB83039A400368DD6A3B
:1007A0002A43DA62164B0568144A9D4206D10D6849
:1007B000122D03D1556845F48005556005689D42AA
:1007C00018D10B68102B01D0112B13D1536843F4AF
:1007D00000035360096810290CD10A490A4A0968C4
:1007E000B1FBF2F101EB8101490000E0491E0091EB
:1007F0000029FBD180F83C40002078BD0023014057
:10080000002001400C00002040420F0070B50400A1
:100810004FF0000503D0206C002610B107E0012046
:1008200070BD204600F01CF8666484F83C60206CC3
:10083000C00610D4206C20F4885040F002002064E0
:100840002046FFF7EDFD6664206C20F0020040F0CA
:100850000100206400E0012584F83C60284670BD5A
:1008600010B586B0044614216846FFF774FD12499E
:10087000206888421DD111480021026842F480623C
:100880000260006800F4806005900C48143802682B
:1008900042F020020260006800F0200005904FF452
:1008A000806000900320CDE901016946044800F012
:1008B00071FA06B010BD0000002201404438024029
:1008C00000140240F0B590F820500468A468012D8F
:1008D00005D0022D03D0416A41F4802157E014F085
:1008E000406F01D1E5004FD5C4F301640125A54057
:1008F0001D608D684FF4C0739DB1CE6835434E685E
:1009000045EAC605066803EB0417F5514FF4C275B6
:10091000076805EB04150E697E51097D012905D094
:1009200009E00E88CD6845EA4655EBE701684E5967
:1009300046F480764E511179D579567941EA0561B0
:1009400095792D0445EA062529434FF4C6760568B6
:1009500006EB0416A9511178D57841EA056195781E
:1009600052782D0445EA022211434FF4C4750268FF
:1009700005EB04155151006803EB0411425842F095
:10098000010242500020F0BD416A41F40011416271
:100990000120F0BD10B590F82020012A07D0022ACE
:1009A00005D0416A41F480214162012010BD3B48DD
:1009B000D0F8002242F00102C0F80022D0F8002254
:1009C00022F47C52C0F80022D0F800224B6A42EA9E
:1009D0000322C0F800220A7D02F01F0301229A4080
:1009E000D0F81C329343C0F81C32CB69B3B9D0F8AD
:1009F0000C329343C0F80C328C894B6864F31F436C
:100A00004C6900EBC404C4F840320C890B6864F3F1
:100A10001F434C6900EBC404C4F84432CB69012B7A
:100A200016D1D0F80C321343C0F80C320C884B6846
:100A300064F31F434C6900EBC404C4F840320C89D2
:100A4000CB6864F31F434C6900EBC404C4F8443220
:100A50008B69002BD0F804320ED01343C0F8043257
:100A60000B69002BD0F8143208D01343C0F81432AD
:100A7000096A012904D008E09343EFE79343F5E7BF
:100A8000D0F81C121143C0F81C12D0F8001221F04B
:100A90000101C0F80012002010BD000000640040F9
:100AA0000246002092F82030012B01D0022B05D104
:100AB000106821B1D0F8100000F003007047C06842
:100AC000FAE770B590F82040012C05D0022C03D035
:100AD000416A41F4802128E0046809B32469A4072D
:100AE00020D04FF4D874056804EB01142D5915F08B
:100AF0000405956005682D591AD0ED085560056804
:100B00002C5904F00204D4604FF4DA74056804EB45
:100B100001142E5906F00F06082E0CD308250DE0FF
:100B2000E468DCE7416A41F400114162012070BDD4
:100B30006D0D1560E3E72D5905F00F05156105688A
:100B40002D59C5F30725956105682C59240C54616E
:100B50004FF4DC72046802EB0112A4581C700468A4
:100B6000A458240A5C700468A458240C9C7004687F
:100B7000A258120EDA704FF4DE72046802EB011212
:100B8000A4581C710468A458240A5C710468A45811
:100B9000240C9C710468A258120EDA71006829B105
:100BA000016941F020010161002070BDC16841F080
:100BB0002001C160F8E770B5040003D094F820006C
:100BC00010B104E0012070BD204600F081F82068DB
:100BD000016841F00101016000F0DAF905460526DF
:100BE00004E000F0D5F9401B0A2811D820684068BD
:100BF000C007F6D02068016821F00201016000F012
:100C0000C7F905460BE000F0C3F9401B0A2806D9D6
:100C1000606A40F40030606284F82060D2E72068A7
:100C200040688007EFD4207E0128206801683DD00D
:100C300021F080010160607E01282068016838D0C1
:100C400021F040010160A07E01282068016833D0B6
:100C500021F020010160E07E0128206801682ED08B
:100C600041F010010160207F01282068016829D02F
:100C700021F008010160607F01282068016824D00C
:100C800021F004010160D4E902010843D4E904120F
:100C9000114308436168491E08432168C861002068
:100CA0006062012084F82000002070BD41F08001C6
:100CB000C0E741F04001C5E741F02001CAE721F05B
:100CC0001001CFE741F00801D4E741F00401D9E772
:100CD00010B586B0044614216846FFF73CFB144962
:100CE0002068884221D113480021026842F0007236
:100CF0000260006800F0007005900E48103802682D
:100D000042F002020260006800F0020005904FF419
:100D1000407000900220CDE90101032003900920DA
:100D200004906946044800F035F806B010BD000094
:100D300000640040403802400004024070B50446A0
:100D400090F82000012804D0606A40F4002060621E
:100D500018E0022084F820002068016821F00101D9
:100D6000016000F015F905460EE000BF00F010F933
:100D7000401B0A2808D9606A40F4003060620520F0
:100D800084F82000012070BD20684068C007EDD1C4
:100D9000606270BD2DE9F84FDFF8BCA1002201258B
:100DA00003264FF00F090AF1040BAAF1040E00BF4D
:100DB0000B6805FA02F42340A34270D10F7907F0C3
:100DC0000307012F01D0022F16D187684FEA42088E
:100DD00006FA08FC27EA0C07D1F80CC00CFA08FC4C
:100DE0004CEA070CC0F808C04768A7430C79C4F365
:100DF000001494403C4344600C79E443A4070AD0B7
:100E0000C4684FEA420C06FA0CF7BC438F6807FA35
:100E10000CF72743C7600C7904F00304022C12D1AD
:100E2000D40800EB840CDCF820405707FF0E09FAC9
:100E300007F824EA0804D1F8108008FA07F848EA0D
:100E40000408CCF8208004684FEA420C06FA0CF73C
:100E5000BC430F7907F0030707FA0CF72743076035
:100E60004C6814F4403F70D03C4C276847F48047EE
:100E70002760246822F0030704F480440094384C6F
:100E800007EB040CDCF8084897074FEA177809FAD3
:100E900008F7BC43334FB84202D1002724E054E0A6
:100EA000314FB84201D101271EE0304FB84201D185
:100EB000022719E02E4FB84201D1032714E02D4F2D
:100EC000B84201D104270FE02B4FB84201D10527CA
:100ED0000AE02A4FB84201D1062705E0284FB84260
:100EE00001D1072700E0082707FA08F72743CCF8C5
:100EF0000878DAF800405746D1F804C09C435FEA0E
:100F0000CC2C00D51C433C60DBF800405F46D1F898
:100F100004C09C435FEA8C2C00D51C433C60DEF887
:100F200000407746D1F804C09C435FEA8C3C00D572
:100F30001C433C60084F083F3C68D1F804C09C4308
:100F40005FEACC3C00D51C433C60521C102AFFF4E5
:100F50002FAFBDE8F88F0000083C01404438024044
:100F6000003001400000024000040240000802403E
:100F7000000C024000100240001402400018024021
:100F8000001C02400AB1816170470904FBE70000C0
:100F90000148806870470000000000200248816816
:100FA0000278114481607047000000200B4810B5A2
:100FB000016841F400710160016841F480610160E1
:100FC000016841F480710160032000F061F80F2096
:100FD00000F006F800F024F8002010BD003C0240AC
:100FE00070B50D4D04464FF47A712878B1FBF0F0DE
:100FF0000A490968B1FBF0F000F0DEFA48B9102C9C
:1010000007D200222146501E00F022F800206C601A
:1010100070BD012070BD0000000000200C00002009
:101020000A4808B5016841F480410160006800F495
:10103000804000900548001F016841F08051016028
:10104000006800F08050009008BD00004438024065
:10105000F0B40E4B1B680C46C3F30223C3F1070523
:10106000042D00D90425191D072901D2002300E011
:10107000DB1E012606FA05F1491E214099409E40DB
:10108000761E16403143F0BC01F049B80CED00E08B
:10109000064900F0070208684FF6FF03184040EACF
:1010A0000220034A10430860704700000CED00E086
:1010B0000000FA052DE9F0470E46050065D0DFF87F
:1010C0001481D8F80000F7B200F00700B04207D250
:1010D00088F80070D8F8000000F00700B04254D142
:1010E00028683D4C810712D5400703D5206840F49D
:1010F000E05020602878000703D5206840F4604065
:1011000020602068A96820F0F0000843206028785B
:10111000C0072DD0304968680839012812D002284C
:1011200013D0032811D00968890700292DDA216816
:1011300021F0030101432160FFF72AFF814641F2BC
:10114000883A0EE009688903EFE709688901ECE74E
:10115000FFF71EFFA0EB0901514502D90320BDE8AE
:10116000F0872068696800F00C00B0EB810FEFD1C8
:10117000D8F80010404601F00701B14207D90770C6
:10118000006800F00700B04201D00120E7E72878AE
:10119000400705D52068E96820F4E0500843206046
:1011A0002878000706D52068296920F4604040EAC5
:1011B000C100206000F018F82168084AC1F303114B
:1011C000515CC8400649086006480068FFF708FF00
:1011D0000020C4E7003C024008380240B22B00085F
:1011E0000C00002004000020154810B5006810F025
:1011F0000C02144813D01449042A0FD0082A0ED127
:101200000F4C241F2268236802F03F025B0207D5BF
:101210002068C0F38810A0FB010106E0084610BD5D
:101220002168C1F38811A1FB00010023FFF71CF81E
:101230002168C1F30141491C4900B0FBF1F010BD28
:10124000083802400024F40040787D012DE9F84F71
:1012500004006ED02078DFF84C93C007A9F1040594
:101260004AD009F104000168C1F38101012908D0C5
:101270000068C0F3810002280AD1D9F800004002BA
:1012800006D52868800337D560680028E1D033E0B0
:101290006068B0F5803F10D0B0F5A02F286810D05E
:1012A00020F480302860286820F48020286060685E
:1012B000A8B1FFF76DFE06460DE0286840F48030C7
:1012C000F4E740F480202860F7E700BFFFF760FEF6
:1012D000801B642873D828688003F7D50CE0FFF7DB
:1012E00057FE064605E000BFFFF752FE801B64284C
:1012F000F0D828688003F7D42078DFF8AC82800724
:101300004FF0000A3ED5A748001D016811F00C0FF0
:1013100008D00068C0F3810002280BD1D9F8000082
:10132000400207D42868800716D5E068012800D15C
:1013300012E033E1E068B8B10120C8F80000FFF71F
:1013400027FE064605E000BFFFF722FE801B0228AD
:10135000C0D828688007F7D52868216920F0F800F0
:1013600040EAC10028600DE0C8F800A0FFF710FEB9
:10137000064604E0FFF70CFE801B02281FD82868F1
:101380008007F7D42078000722D5864F8748616907
:10139000703771B101210160FFF7FAFD064604E0E4
:1013A000FFF7F6FD801B022809D838688007F7D5BB
:1013B0000EE0C0F800A0FFF7EBFD064605E082E076
:1013C000FFF7E6FD801B02287DD838688007F7D438
:1013D0002078400768D5DFF8CCB100270BF13C0B33
:1013E000DBF80000C0000BD4DBF8001041F08051A6
:1013F000CBF80010DBF80000012700F080500090CF
:101400006B4E3068C00510D4306840F48070306096
:10141000FFF7BEFD009005E0FFF7BAFD0099401A06
:10142000022850D83068C005F6D55E4EA0686C36EC
:1014300001280FD00528306810D020F0010030605E
:10144000306820F004003060A068B8B1FFF7A0FD5C
:1014500000900FE0306840F00100F4E740F0040035
:101460003060F7E7FFF794FD0099411A41F28830A8
:10147000814266D830688007F4D50EE0FFF788FD1A
:10148000009007E0FFF784FD0099411A41F288308F
:10149000814256D830688007F4D42FB1DBF80010B1
:1014A00021F08051CBF80010A069C8B33D49091D57
:1014B0000968C1F3810102294AD00228504607D0A9
:1014C000C8F8600000E03CE0FFF762FD04463BE046
:1014D0004746C8F86000FFF75BFD064605E000BF21
:1014E000FFF756FD801B02282BD828688001F7D40F
:1014F000D4E907010843A16A2E4A490802EB0141D9
:10150000626A41EA8211084394F82C1040EA0161B2
:10151000C9F8001001203866FFF73AFD044606E0DE
:101520003EE000BFFFF734FD001B022809D8286801
:101530008001F7D534E000BFFFF72AFD001B022829
:1015400002D90320BDE8F88F28688001F4D427E091
:101550000128F7D0D9F80000E26900F48001914237
:101560001CD1226A00F03F01914217D147F6C071A9
:10157000626A0140B1EB821F10D1A26A4FF0FF33C3
:1015800000F4403103EB5202B1EB024F06D194F864
:101590002C1000F07060B0EB016F01D00120D1E79A
:1015A0000020CFE70438024000004742800E474247
:1015B000007000400000FFFF10B5401EB0F1807FBA
:1015C00001D3012010BD4FF0E02460610F216017AE
:1015D00000F0A5FD0020A06107202061002010BDC3
:1015E00010B590F83C20012A22D0012280F83C203E
:1015F000CA688C6822F4407222434C6822F48062EC
:1016000022430C6822F4006222430C6922F48052C7
:1016100022434C6922F400522243C969002322F478
:1016200080420A4301684A6480F83C30002010BDC3
:10163000022010BD70B590F83C20012A32D0012460
:1016400080F83C40022280F83D2003685A689D687B
:1016500022F070060A6832435A60134B02689A42BD
:1016600014D0B2F1804F11D0104B9A420ED0104BD3
:101670009A420BD00F4B9A4208D00F4B9A4205D09A
:101680000E4B9A4202D00E4B9A4204D1496825F083
:1016900080031943916080F83D40002180F83C10A0
:1016A000084670BD022070BD0000014000040040EB
:1016B00000080040000C00400004014000400140D0
:1016C0000018004070B586B0044614216846FEF745
:1016D00042FE224A2168002421480225914212D16B
:1016E000016841F0100101600068694600F01000D7
:1016F00005904FF4D4400090CDE901540120CDE98C
:101700000340184825E0184A914224D1016841F469
:1017100080710160016801F480710591016841F0F8
:10172000040101600068032600F004000590C02059
:101730000090CDE90154CDE9034669460B48FFF717
:1017400029FB40200090CDE90154CDE903466946CC
:101750000748FFF71FFB06B070BD00000000014006
:1017600030380240001002400004014000200240D6
:101770000008024070B5044690F83C0000260D4673
:1017800001280FD0012084F83C006AB1042A1DD042
:10179000082A2FD00C2A3FD00126002084F83C00D4
:1017A000304670BD022070BD206800F0F5FB206857
:1017B000816941F0080181612068816921F004019B
:1017C0008161206881692A69114311E0206800F075
:1017D00013FC2068816941F400618161206881699E
:1017E00021F480618161206881692A6941EA0221CE
:1017F0008161D2E7206800F035FC2068C16941F0C2
:101800000801C1612068C16921F00401C16120683B
:10181000C1692A69114311E0206800F057FC206873
:10182000C16941F40061C1612068C16921F480612E
:10183000C1612068C1692A6941EA0221C161ACE73E
:1018400010B5040003D094F83D0010B107E001206A
:1018500010BD002084F83C00204600F01FF8022054
:1018600084F83D00211D206800F020FB012084F851
:10187000460084F83E0084F83F0084F8400084F875
:10188000410084F8420084F8430084F8440084F85E
:10189000450084F83D00002010BD000008B50C4A4A
:1018A00001680C48914207D1016841F001010160D3
:1018B000006800F0010009E0074A914207D1016881
:1018C00041F002010160006800F00200009008BDD4
:1018D00000000140443802400004014010B50446B5
:1018E000022249B104290ED0082913D094F84100EE
:1018F000012816D0012010BD94F83E000128F9D12E
:1019000084F83E200FE094F83F000128F2D184F8DB
:101910003F2008E094F840000128EBD184F84020F3
:1019200001E084F841200122206800F027FB1649DD
:101930002068164A884201D0904203D1436C43F498
:10194000004343642068884213D0B0F1804F10D028
:101950000F4988420DD00F4988420AD00E4988426B
:1019600007D0904205D00D49884202D00C498842E8
:1019700004D1816801F00701062903D0016841F014
:1019800001010160002010BD000001400004014081
:101990000004004000080040000C004000400140EE
:1019A0000018004070B58268002A44D1C268002A3D
:1019B00041D1006902283ED30A7848781E4C032A98
:1019C00005D0042A10D0217891B1012315E00546F5
:1019D00000F0B8F90020032120706170A5700A465C
:1019E000E070034602211DE000236278E1781AE0EE
:1019F000012A04D0022A1AD00223E02113E0012197
:101A000021706170A0700546E170FFF7C1FAA06017
:101A100009489FED0A0B0C3003C800F0C5FB0023FA
:101A2000012211462846BDE87040FEF723BEBDE8FE
:101A3000704000F0ABB970BD100000200000000045
:101A400000806640FEE700007FB500241548009442
:101A5000019402941249039401604FF48031C0E96B
:101A600001140461047680F820400F49C0E90A148B
:101A70000125C561C46080F830404561FEF7C6FEAF
:101A800008B1FEF71AFE0820CDE900056946029468
:101A90000448FEF715FE002801D0FEF70EFE7FBDBC
:101AA00000220140540000200100000F104810B532
:101AB0000E4901600321416000214FF40022816042
:101AC000C0E903124FF440124261017641768176FB
:101AD0000122C27601774177FFF76DF8002803D025
:101AE000BDE81040FEF7E9BD10BD000000640040F5
:101AF0009C00002070B586B014216846FEF72BFCD0
:101B000026480024016841F002010160016801F0EB
:101B100002010591016841F001010160016801F0D5
:101B200001010591016841F480710160016801F4CF
:101B300080710591016841F080010160016801F048
:101B400080010591016841F004010160016801F024
:101B500004010591016841F020010160016801F074
:101B600020010591016841F01001016000680C4EF0
:101B700000F010004FF4E055059000222946304651
:101B8000FFF700FA01200095CDE9010469463046CF
:101B90000394FFF7FFF806B070BD00003038024034
:101BA000001C024010B592B000240F941C2168461E
:101BB0001094FEF7D0FB202107A8FEF7CCFB2D48A0
:101BC0002B490160A721C0E9011444F61F61C0E957
:101BD000031444618461FFF733FE08B1FEF76DFD25
:101BE0000F940FA923481094FFF724FD08B1FEF7C6
:101BF00064FD6020009040F2DC50CDE901040394C4
:101C000004940594002269461A480694FFF7B2FD31
:101C100008B1FEF752FD042269461648FFF7AAFDF7
:101C200008B1FEF74AFD082269461248FFF7A2FDF7
:101C300008B1FEF742FD0C2269460E48FFF79AFDF7
:101C400008B1FEF73AFD0794089409944FF4005048
:101C50000A94CDE90B4007A906480E94FFF7C0FC93
:101C600008B1FEF72AFD0348FFF72CFD12B010BDA6
:101C700000000140C400002010B592B000240F9471
:101C80001C2168461094FEF766FB202107A8FEF78A
:101C900062FB294827490160A721C0E9011444F6E5
:101CA0001F61C0E9031444618461FFF7C9FD08B1F5
:101CB000FEF703FD0F940FA91F481094FFF7BAFC1D
:101CC00008B1FEF7FAFC6020009040F2DC50CDE94C
:101CD000010403940494059400226946164806946E
:101CE000FFF748FD08B1FEF7E8FC042269461248F8
:101CF000FFF740FD08B1FEF7E0FC082269460E48F8
:101D0000FFF738FD08B1FEF7D8FC07940894099452
:101D10004FF400500A94CDE90B4007A906480E94F1
:101D2000FFF75EFC08B1FEF7C8FC0348FFF7CAFCEA
:101D300012B010BD000401400C010020FEE7FEE7D8
:101D40007047704770B50D489FED0D0B03C800F04C
:101D50002BFA0A4D00240C4E15F1080506EBC400C1
:101D600090ED000B05EBC400416855F8340000F01D
:101D70001BFA641CE4B2062CF0D370BD1C000020DA
:101D80000000000000805640C82B00082DE9F041FB
:101D90001A4C06462079A8B1C01CC0B26071062852
:101DA00001D906206071022020706070A6700120A9
:101DB000E070FFF7EDF8114F0025DFF8448014378D
:101DC000A06010E003230222E02112E008EBC5002E
:101DD00090ED000B07EBC500416857F8350000F0A7
:101DE000E3F96D1CEDB260798542EFD30023022246
:101DF00001213046BDE8F041FEF73CBC1000002058
:101E0000F82B0008FFF7CAB830B593B03021684608
:101E1000FEF7A1FA14210CA8FEF79DFA1D48002533
:101E2000016841F080510160006800F0805011901D
:101E30001948016841F4804101600068022400F4FF
:101E4000804011900120039010200490009406948B
:101E50000820CDE90750A820CDE9090404200B9003
:101E60006846FFF7F3F908B172B6FEE70CA90F2038
:101E700081E831004FF4A0500F904FF48050109043
:101E800005210CA8FFF716F9002801D072B6FEE76D
:101E900013B030BD40380240007000400248016875
:101EA00041F470010160704788ED00E0F0B5026810
:101EB000274B284D284E294F294C4FF0804C9842F3
:101EC00009D0604507D0A84205D0B04203D0B8423F
:101ED00001D0A04204D122F0700E4A6842EA0E02FC
:101EE00098421BD0604519D0A84217D0B04215D0F7
:101EF000B84213D0A04211D01A4DA8420ED01A4DAC
:101F0000A8420BD0194DA84208D0194DA84205D0BF
:101F1000184DA84202D0184DA84203D122F44075B2
:101F2000CA682A434D6922F080022A438D68C5623F
:101F30000D688562984201D0A04201D10969016310
:101F4000016841F004010160012141610260F0BDBE
:101F5000000001400004004000080040000C004068
:101F6000000401400040014000440140004801409D
:101F700000180040001C00400020004010B501F097
:101F80001F030121046A99408C430462016A9A404C
:101F90001143016210BD0000F0B5036A026A22F02D
:101FA0000102026242688469124E24F073050C68D3
:101FB0002C4323F002058B682B430D4DA84201D022
:101FC000B04205D123F00807CB683B4323F004035C
:101FD000A84201D0B04205D14D6922F440721543A8
:101FE0008A692A4342608461496841630362F0BDA3
:101FF0000000014000040140F0B5026A036A23F0CA
:1020000010030362436884690D6824F4E64444EADB
:1020100005248D6822F0200242EA05120F4D104E71
:10202000A84201D0B04206D1CF6822F0800242EA35
:10203000071222F04002A84201D0B04207D14D69F8
:1020400023F4406343EA85038D6943EA85034360D3
:102050008461496881630262F0BD000000000140B4
:1020600000040140F0B5026A036A23F4807303623E
:102070004368C46922F4007224F073050C68124EA0
:102080002C438D6842EA05220E4DA84201D0B04291
:1020900006D1CF6822F4006242EA072222F480626D
:1020A000A84201D0B04207D14D6923F4405343EA1E
:1020B00005138D6943EA05134360C4614968C16330
:1020C0000262F0BD000001400004014030B5046A26
:1020D000026A22F4805202624268C3690D6823F4E6
:1020E000E64343EA05238D6824F4005444EA0534AA
:1020F000084DA84202D0084DA84204D14D6922F4EF
:10210000804242EA85124260C36149680164046208
:1021100030BD00000000014000040140FEE7090757
:10212000090E002804DB00F1E02080F8001470475D
:1021300000F00F0000F1E02080F8141D704700004F
:10214000FEF734FFFFF760FEFFF7D4FCFFF7AEFCAD
:10215000FFF728FDFFF790FDFFF776FC0021104800
:1021600000F072F804210E4800F06EF808210C48C7
:1021700000F06AF80C210A4800F066F800210948CE
:1021800000F062F80421074800F05EF808210548D5
:1021900000F05AF8FEF7DAF9FEF700FAFCE7000063
:1021A000C40000200C01002070B50C462DED068BFC
:1021B000B0EE408AF0EE608A05469FED1BAB9FEDC6
:1021C0001C9B53EC1A2B51EC180B00F093FA03D222
:1021D000B0EE4A8AF0EE6A8A53EC192B51EC180BD8
:1021E00000F0C2FB03D2B0EE498AF0EE698A53ECEC
:1021F000192B51EC180B00F0F7F89FED0F1B53EC67
:10220000112B00F0B3FA9FED0E1B53EC112B00F0D5
:1022100037F800F041FABDEC068B82B22146284621
:10222000BDE8704000F012B800000000000000009F
:1022300000000000008066400000000000409F4059
:102240000000000000407F40FFF748BB10B54FF48E
:10225000FA7440F6C413A24201D2224602E09A4226
:1022600000D91A46006829B1042905D0082905D0EB
:10227000026410BD426310BD826310BDC26310BD15
:1022800010B591EA030F48BF83F0004300F1AA8321
:10229000841A71EB030C05D2121943EB0C03001BDB
:1022A00061EB0C01DFF824E14FEA1154A4EB135C5D
:1022B0001EEA430F18BF9EEA445F73D023EA0E0361
:1022C000DCF1200E21EA045143F4801332D322FAC8
:1022D0000CFE10EB0E0023FA0CFE41EB0E01CCF1CC
:1022E000200E03FA0EFE10EB0E0051F10001B1F5C5
:1022F000801FCCF1200E32D201EB045112FA0EF203
:10230000BDE8104058BF7047401C38BF5FEA42022A
:1023100018BF7047002814BF20F0010041F10001F0
:102320004FEA410313F5001F38BF7047A1F1C041C8
:1023300000F014BB012A43EB0302ACF1200CDCF1EA
:102340001F0E32BF4FF0000E23FA0CF310EB030008
:1023500041EB0451B4EB115FD0D0A1EB045101F576
:10236000801149085FEA300001EB04510ED350F1AF
:10237000000038BF12FA0EFE08D1BDE81040C9E7D0
:10238000401C38BF5FEA4202CAD1C3E7BDE8104033
:102390004FEA410313F5001F38BF7047A1F1C04158
:1023A00000F0DCBA9EEA445F08D011EA5E0FBDE897
:1023B000104004BF01F0004100207047BDE810400C
:1023C00070B500F07DFA00BF64FBBE3E0000E0FF88
:1023D000491058BFC1F140415B1058BFC3F14043A1
:1023E0008B42EFF3008070472DE9C04130B4DFF835
:1023F000A0C23CEA111418BF3CEA131400F0EC80B0
:1024000081EA03051CEA111444EAD57418BF1CEADA
:10241000131500F0C780A4EB05044FF0004545EA12
:10242000C12145EAC32341EA505143EA525304F122
:102430007F74994204F500344FEAC0204FEAC2226B
:1024400008BF904200F09C804FEA13650FF24016DF
:10245000765D4FEA134506FB05F7C7F1807706FB6B
:1024600007F74FEAD737A7FB03687642C8F58038ED
:10247000A7FB06CE38BFA8F1010807FB08E64FF01E
:10248000000EA6FB028CE6FB03CEDCF1000CCEF1C5
:10249000004E38BFAEF1010EA6FB0C584FF00007FE
:1024A0004FF00005E6FB0E87A1FB08C6A0FB07CE98
:1024B00016EB0E0645F10005E1FB076515F1E04E50
:1024C0007EBFA4F580345FEA46066D4116F18007B1
:1024D00045F100054FEA17274FEA066647EA056708
:1024E000A6F1DE46B6F1805F4FEA15251FD93846C2
:1024F00024F0010C05EBC471BCF1FE6F01EB0C1173
:1025000002D8F0BCBDE8008124425CBF01F5801E0A
:102510009EEAC47F02D4F0BCBDE80081244238D4D6
:10252000F0BCA1F1C041BDE8004100F017BA4FEA8C
:10253000D22242EA43524FEAD323A7FB02864FEA54
:10254000D02040EA415007FB03661EEA0E0F4FEA17
:10255000D12105FB026658BFA6EB0056B6EB00562C
:102560004FEA520E4EEAC37E18EB0E0E56EB530E98
:10257000BDD518EB02085E417F1C55F10005B6E79A
:102580004FF480154FF000074FF000064FF00008A1
:10259000ADE7F0BC4FF0000001F1C04101F0004197
:1025A000BDE8008111EA0C1F0CEA131500D00CE005
:1025B00013EA0C1F00F025804FF00000F0BC81EA08
:1025C000030101F00041BDE80081F0BCBDE800411D
:1025D00081EA030100F0C2B9F0BCBDE8004170B56A
:1025E00000F06EF9097EFC3E00F007B881EA0301B5
:1025F0004FF0000001F00041704781EA030100F054
:10260000ADB9F0BCBDE800414FF000002149704772
:10261000FFFDFBF9F7F5F4F2F0EEEDEBE9E8E6E4A7
:10262000E3E1E0DEDDDBDAD8D7D5D4D3D1D0CFCD2E
:10263000CCCBCAC8C7C6C5C4C2C1C0BFBEBDBCBB67
:10264000BAB9B8B7B6B5B4B3B2B1B0AFAEADACAB62
:10265000AAA9A8A8A7A6A5A4A3A3A2A1A09F9F9E3C
:102660009D9C9C9B9A9999989797969595949393EE
:10267000929191908F8F8E8E8D8C8C8B8B8A898985
:102680008888878786858584848383828281818008
:102690000000FF070000F87F4FEA1153A3F58063A5
:1026A000D3F11E03A8BFD3F1200C08DB4FF000428A
:1026B00042EAC12252EA505232FA03F0704709420C
:1026C0000BD4102BC4BF0020704703F5787CBCF1FD
:1026D000FF3F05D04FF0FF3070474FF000007047CC
:1026E00070B500F0EDF800BF4992248000207047DB
:1026F000F0E7000051EA030C17D41CF5801F58BF07
:10270000BCF5801F00F10680994218BF704708BFD2
:102710009042704707D711F5801F58BF13F5801FEF
:1027200019D499427047894270471CF5801F08D51B
:10273000BCF5801FF7D58B4218BF704708BF824297
:1027400070474FF4001C1CEB410F38BF1CEB430FCC
:1027500001D28B42704770B500F0B2F89224490064
:102760004FF000514FF08053FFF732BEDFF848C101
:1027700070B51CEA111E1EBF1CEA13159EEA0C0F51
:1027800095EA0C0F00F06F8081EA030423EA4C13F2
:102790004EEAD47E21EA4C1141F4801143F48013B7
:1027A000AE44A1FB024CA0FB0365AEF17F7E36195F
:1027B00055EB0C05A1FB034C4CF10003A0FB021CE4
:1027C00016EB0C06654153F10003094218BF46F0B1
:1027D000010613F4007F0BD14FEA03314FEA0530B5
:1027E000340341EA155140EA16506FF003020AE043
:1027F0004FEAC3214FEAC520F40241EA555140EAAD
:1028000056506FF0020202EB2E4201EB025585EAB0
:10281000CE710AD05FEA440C18BF24F0004450F196
:10282000000041F1000120EAD47040F2FE7C6245D4
:1028300000D270BDA84214BF4FF080444FF0404416
:10284000002E08BF0024BEF1806FA8BFA1F1C041D7
:10285000BDE8704080F282804FF0000001F1C0417D
:1028600001F0004170479EEA0C0F0CEA131518BFE7
:1028700095EA0C0F06D04FF0000081EA030E0EF02F
:10288000004170BD00F01CF88900013E00F007B85F
:1028900000F009B84FEA430C5FEA5C5C08D081EABB
:1028A000030100F05BB84FEA410C5FEA5C5CF6D1D3
:1028B0004FF00000014970470000FF070000F87F5B
:1028C0000EF1020E2EF0030E5EF8046B364205D4B4
:1028D000012A43EB030515F5001F12D8012841EB2F
:1028E000010C1CF5001F0CD80ED14FEAD17C15F558
:1028F000001F0CEB4C0C0CF1020C08BF4CEBD37C12
:1029000004E04FF0080C01E04FEAD37C0CEB4C05DF
:1029100026FA05F606F00706B6F1040C06D20EEB11
:10292000860CBDE870404CF0010C6047DFE80CF00D
:10293000090B02024FF000414FF00000A1F5002109
:1029400070BD19461046012851EB010418BFD4F59B
:10295000001484BF002001F0004170BD0808A0F5FC
:1029600000114FEA3101704753EA010C17D41CF5EE
:10297000801F58BFBCF5801F00F106808B4218BF36
:10298000704708BF8242704707D713F5801F58BFB2
:1029900011F5801F19D48B4270479B4270471CF57C
:1029A000801F08D5BCF5801FF7D5994218BF704726
:1029B00008BF904270474FF4001C1CEB430F38BF18
:1029C0001CEB410F01D2994270470FB40CBC03BC01
:1029D000FFF7C1BE10B591EA030F48BF83F0004373
:1029E0003FF556AC841A71EB030C07D212198CF028
:1029F000004C43EB0C03001B61EB0C01DFF8A4E17E
:102A00004FEA1154A4EB135C1EEA430F18BF9EEA71
:102A1000445F00F0B08023EA6E03524221EA045181
:102A2000C3EB6E0338BF5B1EDCF1200E25D322FA08
:102A30000CFE10EB0E0043FA0CFE41EB0E01CCF144
:102A4000200E03FA0EFE10EB0E0051F10001CCF146
:102A5000200E29D412FA0EF201EB0451BDE8104009
:102A600058BF7047401C1CBFB2F1004F7047002890
:102A70000CBF491C20F00100704712EB020E43EB23
:102A8000030218BF4FF0010E4EEA4202ACF1200CD7
:102A9000DCF11E0E54D943FA0CFE10EB0E0051F17E
:102AA000FF31CCF11E0ED5D50EF1010E12FA0EFE3D
:102AB000404141EB010101EB445C5FEA5C5C10D9F1
:102AC00010EBDE7001EB045138BFBEF1004FBDE8E2
:102AD000104018BF704700280CBF491C20F00100AF
:102AE000704730D24FEAD42C11F5001124F4006461
:102AF0001BD0B1FA81F20B3AA41AA41ED2F1200322
:102B0000914030FA03F31943904001EBCC71002C53
:102B100001EB0451BDE81040A8BF704701F1C0416E
:102B20004FF0000001F000417047B0FA80F310FA56
:102B300003F100D110BDE41A173C4805C90AE4E7C7
:102B400001EB045110BD491001EB0451BDE81040E8
:102B50004FEA300002E04FF0000170474A0008BF22
:102B60000042F8D0B2F5001F28BF704701F00041C5
:102B70004FF0000070479EEA445F07D011EA5E0FF5
:102B8000BDE8104004BF002100207047BDE81040A0
:102B900070B5FFF795FE00BF40DFF63E83F00041C1
:102BA000104670470000E0FF4FF04070E1EE100A61
:102BB0007047000000000000000001020304060747
:102BC00008090000000000000000000000805640DE
:102BD00000000000008056400000000000805640C9
:102BE00000000000008056400000000000805640B9
:102BF00000000000008056400000000000C062405D
:102C0000000000000000644000000000004065403B
:102C100000000000008066400000000000006440EA
:102C20000000000000C06240482C000800000020A6
:102C300054000000C40100089C2C0008540000202F
:102C400064070000E001000801000000100000001F
:102C5000000000000024F40000000000000000005C
:102C600000000000C400002000000000C40000209C
:102C700004000000C400002008000000C400002080
:102C80000C0000000C010020000000000C010020DE
:0C2C9000040000000C01002008000000FF
:040000050800018965
:00000001FF
